{
    "abi": [
        {
            "type": "fallback",
            "stateMutability": "payable"
        },
        {
            "type": "receive",
            "stateMutability": "payable"
        },
        {
            "type": "function",
            "name": "DEFAULT_ADMIN_ROLE",
            "inputs": [],
            "outputs": [
                {
                    "name": "",
                    "type": "bytes32",
                    "internalType": "bytes32"
                }
            ],
            "stateMutability": "view"
        },
        {
            "type": "function",
            "name": "PAGES_ADMIN_ROLE",
            "inputs": [],
            "outputs": [
                {
                    "name": "",
                    "type": "bytes32",
                    "internalType": "bytes32"
                }
            ],
            "stateMutability": "view"
        },
        {
            "type": "function",
            "name": "UPGRADE_INTERFACE_VERSION",
            "inputs": [],
            "outputs": [
                {
                    "name": "",
                    "type": "string",
                    "internalType": "string"
                }
            ],
            "stateMutability": "view"
        },
        {
            "type": "function",
            "name": "addPagesAdmin",
            "inputs": [
                {
                    "name": "_newPagesAdmin",
                    "type": "address",
                    "internalType": "address"
                }
            ],
            "outputs": [],
            "stateMutability": "nonpayable"
        },
        {
            "type": "function",
            "name": "blacklistAddress",
            "inputs": [
                {
                    "name": "_address",
                    "type": "address",
                    "internalType": "address"
                }
            ],
            "outputs": [],
            "stateMutability": "nonpayable"
        },
        {
            "type": "function",
            "name": "calculateReservationCost",
            "inputs": [
                {
                    "name": "_months",
                    "type": "uint256",
                    "internalType": "uint256"
                },
                {
                    "name": "_name",
                    "type": "string",
                    "internalType": "string"
                }
            ],
            "outputs": [
                {
                    "name": "",
                    "type": "uint256",
                    "internalType": "uint256"
                }
            ],
            "stateMutability": "view"
        },
        {
            "type": "function",
            "name": "createPage",
            "inputs": [
                {
                    "name": "_contractAddress",
                    "type": "address",
                    "internalType": "address"
                },
                {
                    "name": "_contentHash",
                    "type": "bytes",
                    "internalType": "bytes"
                }
            ],
            "outputs": [],
            "stateMutability": "nonpayable"
        },
        {
            "type": "function",
            "name": "destroyPage",
            "inputs": [
                {
                    "name": "_pageId",
                    "type": "bytes32",
                    "internalType": "bytes32"
                }
            ],
            "outputs": [],
            "stateMutability": "nonpayable"
        },
        {
            "type": "function",
            "name": "donate",
            "inputs": [],
            "outputs": [],
            "stateMutability": "payable"
        },
        {
            "type": "function",
            "name": "getPageName",
            "inputs": [
                {
                    "name": "_pageId",
                    "type": "bytes32",
                    "internalType": "bytes32"
                }
            ],
            "outputs": [
                {
                    "name": "",
                    "type": "string",
                    "internalType": "string"
                }
            ],
            "stateMutability": "view"
        },
        {
            "type": "function",
            "name": "getPageOwner",
            "inputs": [
                {
                    "name": "_pageId",
                    "type": "bytes32",
                    "internalType": "bytes32"
                }
            ],
            "outputs": [
                {
                    "name": "",
                    "type": "address",
                    "internalType": "address"
                }
            ],
            "stateMutability": "view"
        },
        {
            "type": "function",
            "name": "getReservedName",
            "inputs": [
                {
                    "name": "_name",
                    "type": "string",
                    "internalType": "string"
                }
            ],
            "outputs": [
                {
                    "name": "",
                    "type": "bytes32",
                    "internalType": "bytes32"
                }
            ],
            "stateMutability": "view"
        },
        {
            "type": "function",
            "name": "getRoleAdmin",
            "inputs": [
                {
                    "name": "role",
                    "type": "bytes32",
                    "internalType": "bytes32"
                }
            ],
            "outputs": [
                {
                    "name": "",
                    "type": "bytes32",
                    "internalType": "bytes32"
                }
            ],
            "stateMutability": "view"
        },
        {
            "type": "function",
            "name": "grantRole",
            "inputs": [
                {
                    "name": "role",
                    "type": "bytes32",
                    "internalType": "bytes32"
                },
                {
                    "name": "account",
                    "type": "address",
                    "internalType": "address"
                }
            ],
            "outputs": [],
            "stateMutability": "nonpayable"
        },
        {
            "type": "function",
            "name": "hasRole",
            "inputs": [
                {
                    "name": "role",
                    "type": "bytes32",
                    "internalType": "bytes32"
                },
                {
                    "name": "account",
                    "type": "address",
                    "internalType": "address"
                }
            ],
            "outputs": [
                {
                    "name": "",
                    "type": "bool",
                    "internalType": "bool"
                }
            ],
            "stateMutability": "view"
        },
        {
            "type": "function",
            "name": "initialize",
            "inputs": [
                {
                    "name": "_owner",
                    "type": "address",
                    "internalType": "address"
                }
            ],
            "outputs": [],
            "stateMutability": "nonpayable"
        },
        {
            "type": "function",
            "name": "nameReservationExpiry",
            "inputs": [
                {
                    "name": "",
                    "type": "bytes32",
                    "internalType": "bytes32"
                }
            ],
            "outputs": [
                {
                    "name": "",
                    "type": "uint256",
                    "internalType": "uint256"
                }
            ],
            "stateMutability": "view"
        },
        {
            "type": "function",
            "name": "nextPageId",
            "inputs": [
                {
                    "name": "_owner",
                    "type": "address",
                    "internalType": "address"
                },
                {
                    "name": "_contractAddress",
                    "type": "address",
                    "internalType": "address"
                }
            ],
            "outputs": [
                {
                    "name": "",
                    "type": "bytes32",
                    "internalType": "bytes32"
                }
            ],
            "stateMutability": "view"
        },
        {
            "type": "function",
            "name": "owner",
            "inputs": [],
            "outputs": [
                {
                    "name": "",
                    "type": "address",
                    "internalType": "address"
                }
            ],
            "stateMutability": "view"
        },
        {
            "type": "function",
            "name": "pageContentHashes",
            "inputs": [
                {
                    "name": "",
                    "type": "bytes32",
                    "internalType": "bytes32"
                }
            ],
            "outputs": [
                {
                    "name": "",
                    "type": "bytes",
                    "internalType": "bytes"
                }
            ],
            "stateMutability": "view"
        },
        {
            "type": "function",
            "name": "pageContractAddresses",
            "inputs": [
                {
                    "name": "",
                    "type": "bytes32",
                    "internalType": "bytes32"
                }
            ],
            "outputs": [
                {
                    "name": "",
                    "type": "address",
                    "internalType": "address"
                }
            ],
            "stateMutability": "view"
        },
        {
            "type": "function",
            "name": "pageExists",
            "inputs": [
                {
                    "name": "pageId",
                    "type": "bytes32",
                    "internalType": "bytes32"
                }
            ],
            "outputs": [
                {
                    "name": "",
                    "type": "bool",
                    "internalType": "bool"
                }
            ],
            "stateMutability": "view"
        },
        {
            "type": "function",
            "name": "pageOwnerCounter",
            "inputs": [
                {
                    "name": "",
                    "type": "address",
                    "internalType": "address"
                }
            ],
            "outputs": [
                {
                    "name": "",
                    "type": "uint256",
                    "internalType": "uint256"
                }
            ],
            "stateMutability": "view"
        },
        {
            "type": "function",
            "name": "pageOwners",
            "inputs": [
                {
                    "name": "",
                    "type": "bytes32",
                    "internalType": "bytes32"
                }
            ],
            "outputs": [
                {
                    "name": "",
                    "type": "address",
                    "internalType": "address"
                }
            ],
            "stateMutability": "view"
        },
        {
            "type": "function",
            "name": "proxiableUUID",
            "inputs": [],
            "outputs": [
                {
                    "name": "",
                    "type": "bytes32",
                    "internalType": "bytes32"
                }
            ],
            "stateMutability": "view"
        },
        {
            "type": "function",
            "name": "releaseName",
            "inputs": [
                {
                    "name": "_name",
                    "type": "string",
                    "internalType": "string"
                }
            ],
            "outputs": [],
            "stateMutability": "nonpayable"
        },
        {
            "type": "function",
            "name": "removeFromBlacklist",
            "inputs": [
                {
                    "name": "_address",
                    "type": "address",
                    "internalType": "address"
                }
            ],
            "outputs": [],
            "stateMutability": "nonpayable"
        },
        {
            "type": "function",
            "name": "renounceOwnership",
            "inputs": [],
            "outputs": [],
            "stateMutability": "nonpayable"
        },
        {
            "type": "function",
            "name": "renounceRole",
            "inputs": [
                {
                    "name": "role",
                    "type": "bytes32",
                    "internalType": "bytes32"
                },
                {
                    "name": "callerConfirmation",
                    "type": "address",
                    "internalType": "address"
                }
            ],
            "outputs": [],
            "stateMutability": "nonpayable"
        },
        {
            "type": "function",
            "name": "reservationCostPerMonth",
            "inputs": [],
            "outputs": [
                {
                    "name": "",
                    "type": "uint256",
                    "internalType": "uint256"
                }
            ],
            "stateMutability": "view"
        },
        {
            "type": "function",
            "name": "reservationDiscount12Months",
            "inputs": [],
            "outputs": [
                {
                    "name": "",
                    "type": "uint256",
                    "internalType": "uint256"
                }
            ],
            "stateMutability": "view"
        },
        {
            "type": "function",
            "name": "reserveName",
            "inputs": [
                {
                    "name": "_pageId",
                    "type": "bytes32",
                    "internalType": "bytes32"
                },
                {
                    "name": "_name",
                    "type": "string",
                    "internalType": "string"
                },
                {
                    "name": "_months",
                    "type": "uint256",
                    "internalType": "uint256"
                }
            ],
            "outputs": [],
            "stateMutability": "payable"
        },
        {
            "type": "function",
            "name": "revokeRole",
            "inputs": [
                {
                    "name": "role",
                    "type": "bytes32",
                    "internalType": "bytes32"
                },
                {
                    "name": "account",
                    "type": "address",
                    "internalType": "address"
                }
            ],
            "outputs": [],
            "stateMutability": "nonpayable"
        },
        {
            "type": "function",
            "name": "shortNameMultiplier",
            "inputs": [],
            "outputs": [
                {
                    "name": "",
                    "type": "uint256",
                    "internalType": "uint256"
                }
            ],
            "stateMutability": "view"
        },
        {
            "type": "function",
            "name": "shortNameThreshold",
            "inputs": [],
            "outputs": [
                {
                    "name": "",
                    "type": "uint256",
                    "internalType": "uint256"
                }
            ],
            "stateMutability": "view"
        },
        {
            "type": "function",
            "name": "supportsInterface",
            "inputs": [
                {
                    "name": "interfaceId",
                    "type": "bytes4",
                    "internalType": "bytes4"
                }
            ],
            "outputs": [
                {
                    "name": "",
                    "type": "bool",
                    "internalType": "bool"
                }
            ],
            "stateMutability": "view"
        },
        {
            "type": "function",
            "name": "transferOwnership",
            "inputs": [
                {
                    "name": "newOwner",
                    "type": "address",
                    "internalType": "address"
                }
            ],
            "outputs": [],
            "stateMutability": "nonpayable"
        },
        {
            "type": "function",
            "name": "transferPageOwnership",
            "inputs": [
                {
                    "name": "_pageId",
                    "type": "bytes32",
                    "internalType": "bytes32"
                },
                {
                    "name": "_newOwner",
                    "type": "address",
                    "internalType": "address"
                }
            ],
            "outputs": [],
            "stateMutability": "nonpayable"
        },
        {
            "type": "function",
            "name": "updatePageContentHash",
            "inputs": [
                {
                    "name": "_pageId",
                    "type": "bytes32",
                    "internalType": "bytes32"
                },
                {
                    "name": "_contentHash",
                    "type": "bytes",
                    "internalType": "bytes"
                }
            ],
            "outputs": [],
            "stateMutability": "nonpayable"
        },
        {
            "type": "function",
            "name": "updatePayoutAddress",
            "inputs": [
                {
                    "name": "_newPayoutAddress",
                    "type": "address",
                    "internalType": "address"
                }
            ],
            "outputs": [],
            "stateMutability": "nonpayable"
        },
        {
            "type": "function",
            "name": "updateReservationCost",
            "inputs": [
                {
                    "name": "_newCost",
                    "type": "uint256",
                    "internalType": "uint256"
                }
            ],
            "outputs": [],
            "stateMutability": "nonpayable"
        },
        {
            "type": "function",
            "name": "updateReservationDiscount",
            "inputs": [
                {
                    "name": "_newDiscount",
                    "type": "uint256",
                    "internalType": "uint256"
                }
            ],
            "outputs": [],
            "stateMutability": "nonpayable"
        },
        {
            "type": "function",
            "name": "updateShortNameMultiplier",
            "inputs": [
                {
                    "name": "_newMultiplier",
                    "type": "uint256",
                    "internalType": "uint256"
                }
            ],
            "outputs": [],
            "stateMutability": "nonpayable"
        },
        {
            "type": "function",
            "name": "updateShortNameThreshold",
            "inputs": [
                {
                    "name": "_newThreshold",
                    "type": "uint256",
                    "internalType": "uint256"
                }
            ],
            "outputs": [],
            "stateMutability": "nonpayable"
        },
        {
            "type": "function",
            "name": "upgradeToAndCall",
            "inputs": [
                {
                    "name": "newImplementation",
                    "type": "address",
                    "internalType": "address"
                },
                {
                    "name": "data",
                    "type": "bytes",
                    "internalType": "bytes"
                }
            ],
            "outputs": [],
            "stateMutability": "payable"
        },
        {
            "type": "function",
            "name": "withdraw",
            "inputs": [
                {
                    "name": "amount",
                    "type": "uint256",
                    "internalType": "uint256"
                }
            ],
            "outputs": [],
            "stateMutability": "nonpayable"
        },
        {
            "type": "event",
            "name": "DonationReceived",
            "inputs": [
                {
                    "name": "donor",
                    "type": "address",
                    "indexed": true,
                    "internalType": "address"
                },
                {
                    "name": "amount",
                    "type": "uint256",
                    "indexed": false,
                    "internalType": "uint256"
                }
            ],
            "anonymous": false
        },
        {
            "type": "event",
            "name": "FundsReceived",
            "inputs": [
                {
                    "name": "sender",
                    "type": "address",
                    "indexed": true,
                    "internalType": "address"
                },
                {
                    "name": "amount",
                    "type": "uint256",
                    "indexed": false,
                    "internalType": "uint256"
                }
            ],
            "anonymous": false
        },
        {
            "type": "event",
            "name": "FundsWithdrawn",
            "inputs": [
                {
                    "name": "recipient",
                    "type": "address",
                    "indexed": true,
                    "internalType": "address"
                },
                {
                    "name": "amount",
                    "type": "uint256",
                    "indexed": false,
                    "internalType": "uint256"
                }
            ],
            "anonymous": false
        },
        {
            "type": "event",
            "name": "Initialized",
            "inputs": [
                {
                    "name": "version",
                    "type": "uint64",
                    "indexed": false,
                    "internalType": "uint64"
                }
            ],
            "anonymous": false
        },
        {
            "type": "event",
            "name": "NameReleased",
            "inputs": [
                {
                    "name": "pageId",
                    "type": "bytes32",
                    "indexed": true,
                    "internalType": "bytes32"
                },
                {
                    "name": "name",
                    "type": "string",
                    "indexed": false,
                    "internalType": "string"
                }
            ],
            "anonymous": false
        },
        {
            "type": "event",
            "name": "NameReserved",
            "inputs": [
                {
                    "name": "pageId",
                    "type": "bytes32",
                    "indexed": true,
                    "internalType": "bytes32"
                },
                {
                    "name": "name",
                    "type": "string",
                    "indexed": false,
                    "internalType": "string"
                },
                {
                    "name": "expiryTimestamp",
                    "type": "uint256",
                    "indexed": false,
                    "internalType": "uint256"
                }
            ],
            "anonymous": false
        },
        {
            "type": "event",
            "name": "OwnershipTransferred",
            "inputs": [
                {
                    "name": "previousOwner",
                    "type": "address",
                    "indexed": true,
                    "internalType": "address"
                },
                {
                    "name": "newOwner",
                    "type": "address",
                    "indexed": true,
                    "internalType": "address"
                }
            ],
            "anonymous": false
        },
        {
            "type": "event",
            "name": "PageContentHashUpdated",
            "inputs": [
                {
                    "name": "pageId",
                    "type": "bytes32",
                    "indexed": true,
                    "internalType": "bytes32"
                },
                {
                    "name": "contentHash",
                    "type": "bytes",
                    "indexed": true,
                    "internalType": "bytes"
                }
            ],
            "anonymous": false
        },
        {
            "type": "event",
            "name": "PageCreated",
            "inputs": [
                {
                    "name": "pageId",
                    "type": "bytes32",
                    "indexed": true,
                    "internalType": "bytes32"
                },
                {
                    "name": "owner",
                    "type": "address",
                    "indexed": true,
                    "internalType": "address"
                },
                {
                    "name": "contractAddress",
                    "type": "address",
                    "indexed": true,
                    "internalType": "address"
                }
            ],
            "anonymous": false
        },
        {
            "type": "event",
            "name": "PageDestroyed",
            "inputs": [
                {
                    "name": "pageId",
                    "type": "bytes32",
                    "indexed": true,
                    "internalType": "bytes32"
                },
                {
                    "name": "caller",
                    "type": "address",
                    "indexed": false,
                    "internalType": "address"
                }
            ],
            "anonymous": false
        },
        {
            "type": "event",
            "name": "PageOwnershipTransferred",
            "inputs": [
                {
                    "name": "pageId",
                    "type": "bytes32",
                    "indexed": true,
                    "internalType": "bytes32"
                },
                {
                    "name": "owner",
                    "type": "address",
                    "indexed": true,
                    "internalType": "address"
                },
                {
                    "name": "newOwner",
                    "type": "address",
                    "indexed": true,
                    "internalType": "address"
                }
            ],
            "anonymous": false
        },
        {
            "type": "event",
            "name": "ReservationCostUpdated",
            "inputs": [
                {
                    "name": "newCost",
                    "type": "uint256",
                    "indexed": false,
                    "internalType": "uint256"
                }
            ],
            "anonymous": false
        },
        {
            "type": "event",
            "name": "ReservationDiscountUpdated",
            "inputs": [
                {
                    "name": "newDiscount",
                    "type": "uint256",
                    "indexed": false,
                    "internalType": "uint256"
                }
            ],
            "anonymous": false
        },
        {
            "type": "event",
            "name": "RoleAdminChanged",
            "inputs": [
                {
                    "name": "role",
                    "type": "bytes32",
                    "indexed": true,
                    "internalType": "bytes32"
                },
                {
                    "name": "previousAdminRole",
                    "type": "bytes32",
                    "indexed": true,
                    "internalType": "bytes32"
                },
                {
                    "name": "newAdminRole",
                    "type": "bytes32",
                    "indexed": true,
                    "internalType": "bytes32"
                }
            ],
            "anonymous": false
        },
        {
            "type": "event",
            "name": "RoleGranted",
            "inputs": [
                {
                    "name": "role",
                    "type": "bytes32",
                    "indexed": true,
                    "internalType": "bytes32"
                },
                {
                    "name": "account",
                    "type": "address",
                    "indexed": true,
                    "internalType": "address"
                },
                {
                    "name": "sender",
                    "type": "address",
                    "indexed": true,
                    "internalType": "address"
                }
            ],
            "anonymous": false
        },
        {
            "type": "event",
            "name": "RoleRevoked",
            "inputs": [
                {
                    "name": "role",
                    "type": "bytes32",
                    "indexed": true,
                    "internalType": "bytes32"
                },
                {
                    "name": "account",
                    "type": "address",
                    "indexed": true,
                    "internalType": "address"
                },
                {
                    "name": "sender",
                    "type": "address",
                    "indexed": true,
                    "internalType": "address"
                }
            ],
            "anonymous": false
        },
        {
            "type": "event",
            "name": "ShortNameMultiplierUpdated",
            "inputs": [
                {
                    "name": "newMultiplier",
                    "type": "uint256",
                    "indexed": false,
                    "internalType": "uint256"
                }
            ],
            "anonymous": false
        },
        {
            "type": "event",
            "name": "ShortNameThresholdUpdated",
            "inputs": [
                {
                    "name": "newThreshold",
                    "type": "uint256",
                    "indexed": false,
                    "internalType": "uint256"
                }
            ],
            "anonymous": false
        },
        {
            "type": "event",
            "name": "Upgraded",
            "inputs": [
                {
                    "name": "implementation",
                    "type": "address",
                    "indexed": true,
                    "internalType": "address"
                }
            ],
            "anonymous": false
        },
        {
            "type": "error",
            "name": "AccessControlBadConfirmation",
            "inputs": []
        },
        {
            "type": "error",
            "name": "AccessControlUnauthorizedAccount",
            "inputs": [
                {
                    "name": "account",
                    "type": "address",
                    "internalType": "address"
                },
                {
                    "name": "neededRole",
                    "type": "bytes32",
                    "internalType": "bytes32"
                }
            ]
        },
        {
            "type": "error",
            "name": "AddressEmptyCode",
            "inputs": [
                {
                    "name": "target",
                    "type": "address",
                    "internalType": "address"
                }
            ]
        },
        {
            "type": "error",
            "name": "ERC1967InvalidImplementation",
            "inputs": [
                {
                    "name": "implementation",
                    "type": "address",
                    "internalType": "address"
                }
            ]
        },
        {
            "type": "error",
            "name": "ERC1967NonPayable",
            "inputs": []
        },
        {
            "type": "error",
            "name": "FailedInnerCall",
            "inputs": []
        },
        {
            "type": "error",
            "name": "InvalidInitialization",
            "inputs": []
        },
        {
            "type": "error",
            "name": "NotInitializing",
            "inputs": []
        },
        {
            "type": "error",
            "name": "OwnableInvalidOwner",
            "inputs": [
                {
                    "name": "owner",
                    "type": "address",
                    "internalType": "address"
                }
            ]
        },
        {
            "type": "error",
            "name": "OwnableUnauthorizedAccount",
            "inputs": [
                {
                    "name": "account",
                    "type": "address",
                    "internalType": "address"
                }
            ]
        },
        {
            "type": "error",
            "name": "UUPSUnauthorizedCallContext",
            "inputs": []
        },
        {
            "type": "error",
            "name": "UUPSUnsupportedProxiableUUID",
            "inputs": [
                {
                    "name": "slot",
                    "type": "bytes32",
                    "internalType": "bytes32"
                }
            ]
        }
    ],
    "bytecode": {
        "object": "0x60a060405230608052348015601357600080fd5b50608051612c0661003d60003960008181611fe60152818161200f01526121500152612c066000f3fe6080604052600436106102815760003560e01c80637086553e1161014f578063ad3cb1cc116100c1578063de3740a21161007a578063de3740a21461085d578063ed88c68e1461087d578063eea84be914610885578063f2fde38b1461089b578063f31aba47146108bb578063f3290d75146108db576102be565b8063ad3cb1cc1461078c578063c4d66de8146107bd578063c624a269146107dd578063d310bc32146107fd578063d547741f1461081d578063d9454f951461083d576102be565b80638da5cb5b116101135780638da5cb5b146106cc57806391d14854146106e157806397626fcd14610701578063a19763d214610721578063a217fddf14610757578063a3ea36541461076c576102be565b80637086553e14610628578063715018a61461064857806373de46621461065d5780637f8dc6981461068a57806388744a31146106ac576102be565b80632f81cac8116101f35780634490e428116101ac5780634490e428146105805780634f1ef286146105a057806352d1902d146105b3578063537df3b6146105c857806356200819146105e85780635e662a9514610608576102be565b80632f81cac8146104af57806330fa16d8146104c557806334406893146104e557806336568abe1461051d5780633fac49e51461053d5780634334e9131461056a576102be565b8063248a9ca311610245578063248a9ca3146103ab57806327abb8de146103cb5780632b2e76b3146103eb5780632e1885bc146104395780632e1a7d4d1461046f5780632f2ff15d1461048f576102be565b806301ffc9a7146102f057806304e2d7f314610325578063050e2abd146103495780630cc887eb146103765780631fedc3b014610398576102be565b366102be5760405134815233907f8e47b87b0ef542cdfa1659c551d88bad38aa7f452d2bbb349ab7530dfec8be8f906020015b60405180910390a2005b60405134815233907f8e47b87b0ef542cdfa1659c551d88bad38aa7f452d2bbb349ab7530dfec8be8f906020016102b4565b3480156102fc57600080fd5b5061031061030b366004612528565b6108fb565b60405190151581526020015b60405180910390f35b34801561033157600080fd5b5061033b600b5481565b60405190815260200161031c565b34801561035557600080fd5b5061033b610364366004612552565b600a6020526000908152604090205481565b34801561038257600080fd5b50610396610391366004612617565b610932565b005b6103966103a636600461265e565b610a70565b3480156103b757600080fd5b5061033b6103c6366004612552565b610df8565b3480156103d757600080fd5b506103966103e6366004612552565b610e1a565b3480156103f757600080fd5b50610421610406366004612552565b6000908152600160205260409020546001600160a01b031690565b6040516001600160a01b03909116815260200161031c565b34801561044557600080fd5b50610421610454366004612552565b6001602052600090815260409020546001600160a01b031681565b34801561047b57600080fd5b5061039661048a366004612552565b610e5e565b34801561049b57600080fd5b506103966104aa3660046126cb565b610f7b565b3480156104bb57600080fd5b5061033b600c5481565b3480156104d157600080fd5b506103966104e0366004612552565b610f9d565b3480156104f157600080fd5b50610310610500366004612552565b6000908152600160205260409020546001600160a01b0316151590565b34801561052957600080fd5b506103966105383660046126cb565b611197565b34801561054957600080fd5b5061055d610558366004612552565b6111cf565b60405161031c9190612747565b34801561057657600080fd5b5061033b60095481565b34801561058c57600080fd5b5061039661059b3660046126cb565b611269565b6103966105ae36600461275a565b61134e565b3480156105bf57600080fd5b5061033b61136d565b3480156105d457600080fd5b506103966105e3366004612792565b61138a565b3480156105f457600080fd5b50610396610603366004612792565b611401565b34801561061457600080fd5b5061033b6106233660046127ad565b61142b565b34801561063457600080fd5b5061039661064336600461275a565b6114ae565b34801561065457600080fd5b506103966115fa565b34801561066957600080fd5b5061033b610678366004612792565b60026020526000908152604090205481565b34801561069657600080fd5b5061033b600080516020612bb183398151915281565b3480156106b857600080fd5b5061033b6106c73660046127d7565b61160e565b3480156106d857600080fd5b5061042161165d565b3480156106ed57600080fd5b506103106106fc3660046126cb565b61168b565b34801561070d57600080fd5b5061039661071c366004612552565b6116c3565b34801561072d57600080fd5b5061042161073c366004612552565b6003602052600090815260409020546001600160a01b031681565b34801561076357600080fd5b5061033b600081565b34801561077857600080fd5b50610396610787366004612552565b611700565b34801561079857600080fd5b5061055d604051806040016040528060058152602001640352e302e360dc1b81525081565b3480156107c957600080fd5b506103966107d8366004612792565b61178e565b3480156107e957600080fd5b506103966107f8366004612552565b611906565b34801561080957600080fd5b506103966108183660046127d7565b611943565b34801561082957600080fd5b506103966108383660046126cb565b611aa2565b34801561084957600080fd5b50610396610858366004612792565b611abe565b34801561086957600080fd5b5061033b610878366004612617565b611ade565b610396611bad565b34801561089157600080fd5b5061033b60085481565b3480156108a757600080fd5b506103966108b6366004612792565b611be4565b3480156108c757600080fd5b5061055d6108d6366004612552565b611c22565b3480156108e757600080fd5b506103966108f6366004612792565b611ced565b60006001600160e01b03198216637965db0b60e01b148061092c57506301ffc9a760e01b6001600160e01b03198316145b92915050565b60008281526001602052604090205482906001600160a01b031633146109ae5760405162461bcd60e51b815260206004820152602660248201527f4f6e6c792070616765206f776e65722063616e2063616c6c20746869732066756044820152653731ba34b7b760d11b60648201526084015b60405180910390fd5b3360009081526005602052604090205460ff16156109de5760405162461bcd60e51b81526004016109a590612814565b6000838152600160205260409020546001600160a01b0316610a125760405162461bcd60e51b81526004016109a590612844565b6000838152600460205260409020610a2a83826128f9565b5081604051610a3991906129b8565b6040519081900381209084907f4f92f2209e1646cd9c2abfd9505c0f81d9c02ac94cdc99529b00ae10998c007790600090a3505050565b60008381526001602052604090205483906001600160a01b0316331480610aaf5750610a9a61165d565b6001600160a01b0316336001600160a01b0316145b80610acd5750610acd600080516020612bb18339815191523361168b565b610ae95760405162461bcd60e51b81526004016109a5906129d4565b3360009081526005602052604090205460ff1615610b195760405162461bcd60e51b81526004016109a590612814565b6000835111610b615760405162461bcd60e51b81526020600482015260146024820152734e616d652063616e6e6f7420626520656d70747960601b60448201526064016109a5565b6000610b6c8461160e565b14610bb15760405162461bcd60e51b815260206004820152601560248201527413985b5948185b1c9958591e481c995cd95c9d9959605a1b60448201526064016109a5565b610bba83611d67565b610bfe5760405162461bcd60e51b81526020600482015260156024820152744e616d65206d7573742062652055524c2d7361666560581b60448201526064016109a5565b8160011480610c0d575081600c145b610c685760405162461bcd60e51b815260206004820152602660248201527f5265736572766174696f6e206d75737420626520666f722031206f72203132206044820152656d6f6e74687360d01b60648201526084016109a5565b6000610c748385611ade565b90506000610c8061165d565b6001600160a01b0316336001600160a01b03161480610cb25750610cb2600080516020612bb18339815191523361168b565b905080610d005781341015610d005760405162461bcd60e51b8152602060048201526014602482015273125b9cdd59999a58da595b9d081c185e5b595b9d60621b60448201526064016109a5565b85600686604051610d1191906129b8565b9081526040805160209281900383019020929092556000888152600790915220610d3b86826128f9565b506000610d4b8562278d00612a57565b610d559042612a6e565b6000888152600a6020526040908190208290555190915087907f50a3d5cf2654aa2bec8fd55267f63dfea12107c45e3712676a6d8d29440bb98f90610d9d9089908590612a81565b60405180910390a281158015610db257508234115b15610def57336108fc610dc58534612aa3565b6040518115909202916000818181858888f19350505050158015610ded573d6000803e3d6000fd5b505b50505050505050565b6000908152600080516020612b91833981519152602052604090206001015490565b610e22611e7e565b60088190556040518181527f6515080a839a50ed6a0bf071bd1443936c38d32774dce54cfafd9a2b27129c42906020015b60405180910390a150565b610e6661165d565b6001600160a01b0316336001600160a01b03161480610e985750610e98600080516020612bb18339815191523361168b565b610eb45760405162461bcd60e51b81526004016109a590612ab6565b80471015610efb5760405162461bcd60e51b8152602060048201526014602482015273496e73756666696369656e742062616c616e636560601b60448201526064016109a5565b600080546040516001600160a01b039091169183156108fc02918491818181858888f19350505050158015610f34573d6000803e3d6000fd5b506000546040518281526001600160a01b03909116907feaff4b37086828766ad3268786972c0cd24259d4c87a80f9d3963a3c3d999b0d906020015b60405180910390a250565b610f8482610df8565b610f8d81611eb0565b610f978383611eba565b50505050565b6000818152600160205260409020546001600160a01b0316610fd15760405162461bcd60e51b81526004016109a590612844565b6000818152600160205260409020546001600160a01b031633146110285760405162461bcd60e51b815260206004820152600e60248201526d2737ba103830b3b29037bbb732b960911b60448201526064016109a5565b600081815260016020908152604080832080546001600160a01b0319908116909155600383528184208054909116905560049091528120611068916124da565b6000818152600760205260408120805461108190612871565b9050111561116557600081815260076020526040812080546110a290612871565b80601f01602080910402602001604051908101604052809291908181526020018280546110ce90612871565b801561111b5780601f106110f05761010080835404028352916020019161111b565b820191906000526020600020905b8154815290600101906020018083116110fe57829003601f168201915b5050505050905060068160405161113291906129b8565b90815260200160405180910390206000905560076000838152602001908152602001600020600061116391906124da565b505b60405133815281907fa167fb93e74cd3c814f01a3aae73da9f60ea30355217a535b6249a056db1cabc90602001610f70565b6001600160a01b03811633146111c05760405163334bd91960e11b815260040160405180910390fd5b6111ca8282611f5f565b505050565b600460205260009081526040902080546111e890612871565b80601f016020809104026020016040519081016040528092919081815260200182805461121490612871565b80156112615780601f1061123657610100808354040283529160200191611261565b820191906000526020600020905b81548152906001019060200180831161124457829003601f168201915b505050505081565b6000828152600160205260409020546001600160a01b031661129d5760405162461bcd60e51b81526004016109a590612844565b6000828152600160205260409020546001600160a01b031633146112f45760405162461bcd60e51b815260206004820152600e60248201526d2737ba103830b3b29037bbb732b960911b60448201526064016109a5565b60008281526001602052604080822080546001600160a01b0319166001600160a01b03851690811790915590519091339185917f1dce66310c96d6d39b6e228c50f84b3adc982786e113a3cda62c3222bb36cf9591a45050565b611356611fdb565b61135f82612080565b6113698282612088565b5050565b6000611377612145565b50600080516020612b7183398151915290565b61139261165d565b6001600160a01b0316336001600160a01b031614806113c457506113c4600080516020612bb18339815191523361168b565b6113e05760405162461bcd60e51b81526004016109a590612ab6565b6001600160a01b03166000908152600560205260409020805460ff19169055565b611409611e7e565b600080546001600160a01b0319166001600160a01b0392909216919091179055565b6001600160a01b0382166000908152600260205260408120548190611451906001612a6e565b6040516bffffffffffffffffffffffff1930606090811b8216602084015287811b8216603484015286901b166048820152605c8101829052909150607c016040516020818303038152906040528051906020012091505092915050565b3360009081526005602052604090205460ff16156114de5760405162461bcd60e51b81526004016109a590612814565b6001600160a01b0382166115345760405162461bcd60e51b815260206004820152601860248201527f496e76616c696420636f6e74726163742061646472657373000000000000000060448201526064016109a5565b6000611540338461142b565b600081815260016020908152604080832080546001600160a01b0319163390811790915583526002909152812080549293509061157c83612b06565b9091555050600081815260036020908152604080832080546001600160a01b0319166001600160a01b038816179055600490915290206115bc83826128f9565b506040516001600160a01b03841690339083907fa2c16256371dad9430655997fc6cdcbf66cd836679e8f58f05e2b5931d5fb49990600090a4505050565b611602611e7e565b61160c600061218e565b565b60008060068360405161162191906129b8565b908152604051908190036020019020549050801580159061164f57506000818152600a602052604090205442115b1561092c5750600092915050565b7f9016d09d72d40fdae2fd8ceac6b6234c7706214fd39c1cd1e609a0528c199300546001600160a01b031690565b6000918252600080516020612b91833981519152602090815260408084206001600160a01b0393909316845291905290205460ff1690565b6116cb611e7e565b600c8190556040518181527f2cbd4afa563a9a47f5ee7780b50cb09a47349b1fbc91152556775b35d5ef797790602001610e53565b611708611e7e565b60648111156117595760405162461bcd60e51b815260206004820152601b60248201527f446973636f756e742063616e6e6f74206578636565642031303025000000000060448201526064016109a5565b60098190556040518181527fc96c1ee33db94d7c868704cb6d44973e7314cb218060e444de1ba053adf6d07490602001610e53565b7ff0c57e16840df040f15088dc2f81fe391c3923bec73e23a9662efc9c229c6a008054600160401b810460ff16159067ffffffffffffffff166000811580156117d45750825b905060008267ffffffffffffffff1660011480156117f15750303b155b9050811580156117ff575080155b1561181d5760405163f92ee8a960e01b815260040160405180910390fd5b845467ffffffffffffffff19166001178555831561184757845460ff60401b1916600160401b1785555b611850866121ff565b611858612210565b611860612210565b61186b600087611eba565b50611885600080516020612bb18339815191526000612218565b61189d600080516020612bb183398151915287611eba565b506611c37937e0800060085560146009556006600b55600a600c5583156118fe57845460ff60401b19168555604051600181527fc7f505b2f371ae2175ee4913f4499e1f2633a7b5936321eed1cdaeb6115181d29060200160405180910390a15b505050505050565b61190e611e7e565b600b8190556040518181527f473c276b5ad22ba1310b1d7b50165000f4ec213d7b716271b30fd6a2d5c6200090602001610e53565b61194c8161160e565b6000818152600160205260409020546001600160a01b0316331480611989575061197461165d565b6001600160a01b0316336001600160a01b0316145b806119a757506119a7600080516020612bb18339815191523361168b565b6119c35760405162461bcd60e51b81526004016109a5906129d4565b60006119ce8361160e565b905080611a115760405162461bcd60e51b815260206004820152601160248201527013985b59481b9bdd081c995cd95c9d9959607a1b60448201526064016109a5565b600683604051611a2191906129b8565b908152602001604051809103902060009055600760008281526020019081526020016000206000611a5291906124da565b6000818152600a6020526040808220919091555181907f7ee2d6bb99f840b4d41037883b27a4ad1c79dc01c6552b0f5324b422e6f4c3ae90611a95908690612747565b60405180910390a2505050565b611aab82610df8565b611ab481611eb0565b610f978383611f5f565b611ac6611e7e565b611369600080516020612bb183398151915282611eba565b60008083600103611af25750600854611b86565b83600c03611b3e576000600854600c611b0b9190612a57565b90506000606460095483611b1f9190612a57565b611b299190612b1f565b9050611b358183612aa3565b92505050611b86565b60405162461bcd60e51b815260206004820152601a60248201527f496e76616c6964207265736572766174696f6e20706572696f6400000000000060448201526064016109a5565b600b5483511015611ba657600c54611b9e9082612a57565b91505061092c565b9392505050565b60405134815233907f264f630d9efa0d07053a31163641d9fcc0adafc9d9e76f1c37c2ce3a558d2c529060200160405180910390a2565b611bec611e7e565b6001600160a01b038116611c1657604051631e4fbdf760e01b8152600060048201526024016109a5565b611c1f8161218e565b50565b6000818152600a6020526040902054606090421115611c4f57505060408051602081019091526000815290565b60008281526007602052604090208054611c6890612871565b80601f0160208091040260200160405190810160405280929190818152602001828054611c9490612871565b8015611ce15780601f10611cb657610100808354040283529160200191611ce1565b820191906000526020600020905b815481529060010190602001808311611cc457829003601f168201915b50505050509050919050565b611cf561165d565b6001600160a01b0316336001600160a01b03161480611d275750611d27600080516020612bb18339815191523361168b565b611d435760405162461bcd60e51b81526004016109a590612ab6565b6001600160a01b03166000908152600560205260409020805460ff19166001179055565b600081815b8151811015611e74576000828281518110611d8957611d89612b41565b01602001516001600160f81b0319169050600360fc1b8110801590611dbc5750603960f81b6001600160f81b0319821611155b158015611df25750604160f81b6001600160f81b0319821610801590611df05750602d60f91b6001600160f81b0319821611155b155b8015611e275750606160f81b6001600160f81b0319821610801590611e255750603d60f91b6001600160f81b0319821611155b155b8015611e415750602d60f81b6001600160f81b0319821614155b8015611e5b5750605f60f81b6001600160f81b0319821614155b15611e6b57506000949350505050565b50600101611d6c565b5060019392505050565b33611e8761165d565b6001600160a01b03161461160c5760405163118cdaa760e01b81523360048201526024016109a5565b611c1f813361227b565b6000600080516020612b91833981519152611ed5848461168b565b611f55576000848152602082815260408083206001600160a01b03871684529091529020805460ff19166001179055611f0b3390565b6001600160a01b0316836001600160a01b0316857f2f8788117e7eff1d82e926ec794901d17c78024a50270940304540a733656f0d60405160405180910390a4600191505061092c565b600091505061092c565b6000600080516020612b91833981519152611f7a848461168b565b15611f55576000848152602082815260408083206001600160a01b0387168085529252808320805460ff1916905551339287917ff6391f5c32d9c69d2a47ea670b442974b53935d1edc7fd64eb21e047a839171b9190a4600191505061092c565b306001600160a01b037f000000000000000000000000000000000000000000000000000000000000000016148061206257507f00000000000000000000000000000000000000000000000000000000000000006001600160a01b0316612056600080516020612b71833981519152546001600160a01b031690565b6001600160a01b031614155b1561160c5760405163703e46dd60e11b815260040160405180910390fd5b611c1f611e7e565b816001600160a01b03166352d1902d6040518163ffffffff1660e01b8152600401602060405180830381865afa9250505080156120e2575060408051601f3d908101601f191682019092526120df91810190612b57565b60015b61210a57604051634c9c8ce360e01b81526001600160a01b03831660048201526024016109a5565b600080516020612b71833981519152811461213b57604051632a87526960e21b8152600481018290526024016109a5565b6111ca83836122b4565b306001600160a01b037f0000000000000000000000000000000000000000000000000000000000000000161461160c5760405163703e46dd60e11b815260040160405180910390fd5b7f9016d09d72d40fdae2fd8ceac6b6234c7706214fd39c1cd1e609a0528c19930080546001600160a01b031981166001600160a01b03848116918217845560405192169182907f8be0079c531659141344cd1fd0a4f28419497f9722a3daafe3b4186f6b6457e090600090a3505050565b61220761230a565b611c1f81612353565b61160c61230a565b600080516020612b91833981519152600061223284610df8565b600085815260208490526040808220600101869055519192508491839187917fbd79b86ffe0ab8e8776151514217cd7cacd52c909f66475c3af44e129f0b00ff9190a450505050565b612285828261168b565b6113695760405163e2517d3f60e01b81526001600160a01b0382166004820152602481018390526044016109a5565b6122bd8261235b565b6040516001600160a01b038316907fbc7cd75a20ee27fd9adebab32041f755214dbc6bffa90cc0225b39da2e5c2d3b90600090a2805115612302576111ca82826123c0565b611369612436565b7ff0c57e16840df040f15088dc2f81fe391c3923bec73e23a9662efc9c229c6a0054600160401b900460ff1661160c57604051631afcd79f60e31b815260040160405180910390fd5b611bec61230a565b806001600160a01b03163b60000361239157604051634c9c8ce360e01b81526001600160a01b03821660048201526024016109a5565b600080516020612b7183398151915280546001600160a01b0319166001600160a01b0392909216919091179055565b6060600080846001600160a01b0316846040516123dd91906129b8565b600060405180830381855af49150503d8060008114612418576040519150601f19603f3d011682016040523d82523d6000602084013e61241d565b606091505b509150915061242d858383612455565b95945050505050565b341561160c5760405163b398979f60e01b815260040160405180910390fd5b60608261246a57612465826124b1565b611ba6565b815115801561248157506001600160a01b0384163b155b156124aa57604051639996b31560e01b81526001600160a01b03851660048201526024016109a5565b5092915050565b8051156124c15780518082602001fd5b604051630a12f52160e11b815260040160405180910390fd5b5080546124e690612871565b6000825580601f106124f6575050565b601f016020900490600052602060002090810190611c1f91905b808211156125245760008155600101612510565b5090565b60006020828403121561253a57600080fd5b81356001600160e01b031981168114611ba657600080fd5b60006020828403121561256457600080fd5b5035919050565b634e487b7160e01b600052604160045260246000fd5b600082601f83011261259257600080fd5b81356020830160008067ffffffffffffffff8411156125b3576125b361256b565b50604051601f19601f85018116603f0116810181811067ffffffffffffffff821117156125e2576125e261256b565b6040528381529050808284018710156125fa57600080fd5b838360208301376000602085830101528094505050505092915050565b6000806040838503121561262a57600080fd5b82359150602083013567ffffffffffffffff81111561264857600080fd5b61265485828601612581565b9150509250929050565b60008060006060848603121561267357600080fd5b83359250602084013567ffffffffffffffff81111561269157600080fd5b61269d86828701612581565b93969395505050506040919091013590565b80356001600160a01b03811681146126c657600080fd5b919050565b600080604083850312156126de57600080fd5b823591506126ee602084016126af565b90509250929050565b60005b838110156127125781810151838201526020016126fa565b50506000910152565b600081518084526127338160208601602086016126f7565b601f01601f19169290920160200192915050565b602081526000611ba6602083018461271b565b6000806040838503121561276d57600080fd5b612776836126af565b9150602083013567ffffffffffffffff81111561264857600080fd5b6000602082840312156127a457600080fd5b611ba6826126af565b600080604083850312156127c057600080fd5b6127c9836126af565b91506126ee602084016126af565b6000602082840312156127e957600080fd5b813567ffffffffffffffff81111561280057600080fd5b61280c84828501612581565b949350505050565b6020808252601690820152751059191c995cdcc81a5cc8189b1858dadb1a5cdd195960521b604082015260600190565b602080825260139082015272141859d948191bd95cc81b9bdd08195e1a5cdd606a1b604082015260600190565b600181811c9082168061288557607f821691505b6020821081036128a557634e487b7160e01b600052602260045260246000fd5b50919050565b601f8211156111ca57806000526020600020601f840160051c810160208510156128d25750805b601f840160051c820191505b818110156128f257600081556001016128de565b5050505050565b815167ffffffffffffffff8111156129135761291361256b565b612927816129218454612871565b846128ab565b6020601f82116001811461295b57600083156129435750848201515b600019600385901b1c1916600184901b1784556128f2565b600084815260208120601f198516915b8281101561298b578785015182556020948501946001909201910161296b565b50848210156129a95786840151600019600387901b60f8161c191681555b50505050600190811b01905550565b600082516129ca8184602087016126f7565b9190910192915050565b60208082526047908201527f4f6e6c792070616765206f776e65722c20636f6e7472616374206f776e65722c60408201527f206f722070616765732061646d696e2063616e20706572666f726d20746869736060820152661030b1ba34b7b760c91b608082015260a00190565b634e487b7160e01b600052601160045260246000fd5b808202811582820484141761092c5761092c612a41565b8082018082111561092c5761092c612a41565b604081526000612a94604083018561271b565b90508260208301529392505050565b8181038181111561092c5761092c612a41565b60208082526030908201527f4f6e6c79206f776e6572206f722070616765732061646d696e2063616e20636160408201526f3636103a3434b990333ab731ba34b7b760811b606082015260800190565b600060018201612b1857612b18612a41565b5060010190565b600082612b3c57634e487b7160e01b600052601260045260246000fd5b500490565b634e487b7160e01b600052603260045260246000fd5b600060208284031215612b6957600080fd5b505191905056fe360894a13ba1a3210667c828492db98dca3e2076cc3735a920a3ca505d382bbc02dd7bc7dec4dceedda775e58dd541e08a116c6c53815c0bd028192f7b6268000cc91a62d499692013bfdbd359197d062f3d6d08488340a9aae1af2a56cbc242a26469706673582212202ce23087c16d943e7ce63698dc462b51a27f482d8944cba496a7feac14ccc68164736f6c634300081a0033",
        "linkReferences": {}
    },
    "methodIdentifiers": {
        "DEFAULT_ADMIN_ROLE()": "a217fddf",
        "PAGES_ADMIN_ROLE()": "7f8dc698",
        "UPGRADE_INTERFACE_VERSION()": "ad3cb1cc",
        "addPagesAdmin(address)": "d9454f95",
        "blacklistAddress(address)": "f3290d75",
        "calculateReservationCost(uint256,string)": "de3740a2",
        "createPage(address,bytes)": "7086553e",
        "destroyPage(bytes32)": "30fa16d8",
        "donate()": "ed88c68e",
        "getPageName(bytes32)": "f31aba47",
        "getPageOwner(bytes32)": "2b2e76b3",
        "getReservedName(string)": "88744a31",
        "getRoleAdmin(bytes32)": "248a9ca3",
        "grantRole(bytes32,address)": "2f2ff15d",
        "hasRole(bytes32,address)": "91d14854",
        "initialize(address)": "c4d66de8",
        "nameReservationExpiry(bytes32)": "050e2abd",
        "nextPageId(address,address)": "5e662a95",
        "owner()": "8da5cb5b",
        "pageContentHashes(bytes32)": "3fac49e5",
        "pageContractAddresses(bytes32)": "a19763d2",
        "pageExists(bytes32)": "34406893",
        "pageOwnerCounter(address)": "73de4662",
        "pageOwners(bytes32)": "2e1885bc",
        "proxiableUUID()": "52d1902d",
        "releaseName(string)": "d310bc32",
        "removeFromBlacklist(address)": "537df3b6",
        "renounceOwnership()": "715018a6",
        "renounceRole(bytes32,address)": "36568abe",
        "reservationCostPerMonth()": "eea84be9",
        "reservationDiscount12Months()": "4334e913",
        "reserveName(bytes32,string,uint256)": "1fedc3b0",
        "revokeRole(bytes32,address)": "d547741f",
        "shortNameMultiplier()": "2f81cac8",
        "shortNameThreshold()": "04e2d7f3",
        "supportsInterface(bytes4)": "01ffc9a7",
        "transferOwnership(address)": "f2fde38b",
        "transferPageOwnership(bytes32,address)": "4490e428",
        "updatePageContentHash(bytes32,bytes)": "0cc887eb",
        "updatePayoutAddress(address)": "56200819",
        "updateReservationCost(uint256)": "27abb8de",
        "updateReservationDiscount(uint256)": "a3ea3654",
        "updateShortNameMultiplier(uint256)": "97626fcd",
        "updateShortNameThreshold(uint256)": "c624a269",
        "upgradeToAndCall(address,bytes)": "4f1ef286",
        "withdraw(uint256)": "2e1a7d4d"
    },
    "id": 36
}